:100000000C9404040C942F080C945C080C9489083C
:100010000C94B6080C942C040C942C040C94E30857
:100020000C942C040C942C040C9458180C94251744
:100030000C942C040C942C040C942C040C942C0480
:100040000C942C040C942C040C942C040C942C0470
:100050000C942C040C942C040C942C040C94EA06A0
:100060000C942C040C942C040C942C040C942C0450
:100070000C942C040C942C040C942C040C942C0440
:100080000C942C040C942C040C942C040C942C0430
:100090000C948D1B0C942C040C942C040C942C04A8
:1000A0000C942C040C942C040C942C042409270983
:1000B0001A091E094809480948092B092F0933095B
:1000C00039093D0948094309070605040100080AE2
:1000D0000B0C0D090000000200080E0000030401D3
:1000E000000B000000000000000000000000000005
:1000F0000000040802011040804010204080408031
:1001000008020401804020100201108010204040AD
:1001100004040404040304050202020204030202AC
:100120000202060606060606040402020204000095
:1001300000002300260029002C002F0000000000F2
:10014000250028002B002E003100000000002400B4
:1001500027002A002D003000080B000202020100D7
:10016000090400000102020000052400100105241A
:10017000010101042402060524060001070581038C
:1001800010004009040100020A00000007050202F5
:100190004000000705830240000000000000003E10
:1001A0005B4F5B3E3E6B4F6B3E1C3E7C3E1C183CE7
:1001B0007E3C181C577D571C1C5E7F5E1C00183C43
:1001C0001800FFE7C3E7FF0018241800FFE7DBE78C
:1001D000FF30483A060E2629792926407F05050773
:1001E000407F05253F5A3CE73C5A7F3E1C1C0808CF
:1001F0001C1C3E7F14227F22145F5F005F5F060994
:100200007F017F006689956A606060606094A2FFEC
:10021000A29408047E040810207E201008082A1CDE
:1002200008081C2A08081E101010100C1E0C1E0CAA
:1002300030383E3830060E3E0E060000000000004A
:10024000005F00000007000700147F147F14242AB9
:100250007F2A12231308646236495620500008078B
:100260000300001C2241000041221C002A1C7F1CAC
:100270002A08083E080800807030000808080808AE
:10028000000060600020100804023E5149453E0015
:10029000427F400072494949462141494D33181473
:1002A000127F1027454545393C4A494931412111C2
:1002B00009073649494936464949291E00001400B4
:1002C00000004034000000081422411414141414D7
:1002D000004122140802015909063E415D594E7C35
:1002E0001211127C7F494949363E414141227F41EA
:1002F00041413E7F494949417F090909013E414148
:1003000051737F0808087F00417F41002040413F32
:10031000017F081422417F404040407F021C027F41
:100320007F0408107F3E4141413E7F090909063E96
:100330004151215E7F091929462649494932030165
:100340007F01033F4040403F1F2040201F3F403877
:10035000403F631408146303047804036159494D52
:1003600043007F4141410204081020004141417F88
:1003700004020102044040404040000307080020FE
:10038000545478407F2844443838444444283844FE
:1003900044287F385454541800087E090218A4A435
:1003A0009C787F0804047800447D40002040403D54
:1003B000007F1028440000417F40007C04780478CE
:1003C0007C080404783844444438FC182424181861
:1003D000242418FC7C0804040848545454240404BD
:1003E0003F44243C4040207C1C2040201C3C4030AA
:1003F000403C44281028444C9090907C4464544CD9
:100400004400083641000000770000004136080033
:1004100002010204023C2623263C1EA1A161123ADD
:100420004040207A38545455592155557941225429
:10043000547842215554784020545579400C1E522E
:1004400072123955555559395454545939555454D3
:10045000580000457C410002457D420001457C403A
:100460007D1211127DF0282528F07C54554500207E
:1004700054547C547C0A097F4932494949323A44F0
:1004800044443A324A4848303A4141217A3A42405B
:100490002078009DA0A07D3D4242423D3D4040402D
:1004A0003D3C24FF2424487E4943662B2FFC2F2B00
:1004B000FF0929F620C0887E0903205454794100A1
:1004C00000447D413048484A32384040227A007A20
:1004D0000A0A727D0D19317D2629292F28262929FE
:1004E000292630484D402038080808080808080820
:1004F000382F10C8ACBA2F102834FA00007B000047
:1005000008142A142222142A14085500550055AA4A
:1005100055AA55AAFF55FF55FF000000FF00101017
:1005200010FF00141414FF001010FF00FF1010F053
:1005300010F0141414FC001414F700FF0000FF0066
:10054000FF1414F404FC141417101F10101F101FB4
:100550001414141F00101010F0000000001F1010E1
:1005600010101F10101010F010000000FF101010DD
:10057000101010101010FF10000000FF140000FFFA
:1005800000FF00001F10170000FC04F414141710E3
:10059000171414F404F40000FF00F71414141414D6
:1005A0001414F700F7141414171410101F101F144C
:1005B0001414F4141010F010F000001F101F0000AD
:1005C000001F14000000FC140000F010F01010FFD9
:1005D00010FF141414FF141010101F00000000F07E
:1005E00010FFFFFFFFFFF0F0F0F0F0FFFFFF000053
:1005F000000000FFFF0F0F0F0F0F3844443844FC7A
:100600004A4A4A347E02020606027E027E02635590
:100610004941633844443C04407E201E2006027E4B
:10062000020299A5E7A5991C2A492A1C4C7201725D
:100630004C304A4D4D303048784830BC625A463DC7
:100640003E494949007E0101017E2A2A2A2A2A447C
:10065000445F444440514A444040444A51400000B1
:10066000FF0103E080FF000008086B6B08361236BC
:100670002436060F090F060000181800000010109D
:10068000003040FF0101001F01011E00191D17125B
:10069000003C3C3C3C000000000000C18081C112D5
:1006A00001000202000040412336800001010200E7
:1006B00001120100020000004041233680000101C8
:1006C0000200011803410072006400750069006EA9
:1006D000006F0020004C004C0043002203410072D8
:1006E000006400750069006E006F0020004C00651A
:1006F000006F006E006100720064006F0004030967
:100700000400000000000000002A2B280000000068
:1007100000000000000000000000000000000000D9
:10072000002C9EB4A0A1A2A434A6A7A5AE362D3756
:1007300038271E1F20212223242526B333B62EB7A7
:10074000B89F8485868788898A8B8C8D8E8F9091BF
:1007500092939495969798999A9B9C9D2F3130A34C
:10076000AD350405060708090A0B0C0D0E0F101114
:1007700012131415161718191A1B1C1DAFB1B0B59A
:100780000009040200010300000009210101000129
:100790002265000705840340000105010902A1014B
:1007A0000901A10085010509190129031500250189
:1007B00095037501810295017505810305010930D5
:1007C000093109381581257F750895038106C0C058
:1007D00005010906A1018502050719E029E71500B1
:1007E000250175019508810295017508810395061B
:1007F0007508150025650507190029658100C000E9
:10080000D604DC0BB819E91A11241FBECFEFDAE0C9
:10081000DEBFCDBF13E0A0E0B1E0E4E3FAE302C045
:1008200005900D92A03AB107D9F714E0A0EAB3E021
:1008300001C01D92AF3CB107E1F714E0C4E0D4E081
:1008400004C02197FE010E94121DC030D107C9F7D4
:100850000E94040B0C94BA1C0C94000061157105E5
:1008600079F0FB0101900020E9F73197AF01461BB9
:10087000570BDC01ED91FC910280F381E02D09948E
:1008800080E090E00895DC01ED91FD918081ED9193
:10089000FD919081ED91FD916C9163708E2309F033
:1008A00064609F2309F06860E0E6F4E0E60FF11D64
:1008B000659565956D936D917D918D919D9109944F
:1008C00023C01AC012C016C010C01EC009C014C078
:1008D00013C006C019C009C00DC007C00DC014C0A8
:1008E00062507040804090400BC06150704080402A
:1008F000904006C06E5F01C06F5F7F4F8F4F9F4F6C
:100900009E938E937E936E9308958091F7039091BA
:10091000F8030C9443048091F5039091F6030C9432
:10092000430461E088E00E94490961E089E00E9497
:10093000490960E088E00E94850960E089E00E9442
:10094000850940E855E260E070E083EE93E00E94A4
:10095000D60B21E04CE362E08EEA93E00E94221481
:100960008EEA93E00E94AB1341E050E061E070E05A
:100970008EEA93E00E940A1061E08EEA93E00E9402
:10098000101061E070E08EEA93E00E9416106BE1B7
:1009900073E08EEA93E00E942B0A8EEA93E00E94B5
:1009A000FE1461E08EEA93E00C94E514CF93DF939C
:1009B00064E08EEA93E00E94921362E080E00E947D
:1009C000490962E081E00E944909E0E1F1E0E49137
:1009D000F0E0EE0FFF1FE25DFE4F85919491909342
:1009E000A3038093A203E2EFF0E0E491E093A60377
:1009F000E1E1F1E0E491F0E0EE0FFF1FE25DFE4F78
:100A0000859194919093A5038093A403E3EFF0E084
:100A1000E491E093A7031092A9031092AA03109205
:100A2000AB031092AC0380ED97E00E947F07E0914A
:100A3000A203F091A30390818091A603982381E003
:100A400009F480E0E091A403F091A5032081909146
:100A5000A703922309F08260C2EAD3E08093A8033F
:100A6000D093F603C093F50341E050E06BE874E0E7
:100A700082E00E94DF0781E08093AD03D093F8030A
:100A8000C093F70341E050E065E874E083E00E9422
:100A9000DF078091AD038F5F8093AD03DF91CF912E
:100AA00008954F925F927F928F929F92AF92BF92E2
:100AB000CF92DF92EF92FF920F931F93CF93DF932A
:100AC00000D000D0CDB7DEB721E030E041E050E00B
:100AD00061E070E08EEA93E00E94DB128EEA93E020
:100AE0000E94FE146DE770E080E090E00E945907DC
:100AF00020E030E041E050E061E070E08EEA93E019
:100B00000E94DB128EEA93E00E94FE146DE770E013
:100B100080E090E00E94590760E089E00E9485092A
:100B200061E088E00E94850982E10E94B50915E034
:100B3000189F6001199FD00C112460E088E00E948A
:100B4000850961E089E00E94850982E10E94B5097A
:100B5000189F2001199F500C112460E089E00E9429
:100B6000850960E088E00E948509E12CF12C00E114
:100B700010E020E630E040E050E060E070E08EEA17
:100B800093E00E94170D41E050E062E070E08EEAD1
:100B900093E00E940A108091AD03823030F4F89403
:100BA00082EA93E00E94430401C0F8946091A90393
:100BB0007091AA038091AB039091AC03789424E0E8
:100BC00030E040E050E00E94F31CBA01A9012AE0A5
:100BD00030E08EEA93E00E94A50A6FE373E08EEAAC
:100BE00093E00E940E0A4AE050E0B6018EEA93E0DC
:100BF0000E94FC0A6FE373E08EEA93E00E940E0A03
:100C00004AE050E0B2018EEA93E00E94FC0A8EEACC
:100C100093E00E94FE14C20164E670E00E94BD1CD5
:100C200000E210E0061B170BFD2CE52C94E0892E4A
:100C3000912CA12CB12C83EE93E00E94410B18164D
:100C400019060CF0B3C083EE93E00E94510B782E8E
:100C5000682F8EEA93E00E943D0A8EEA93E00E949C
:100C6000FE1481E47812E7CFC114D10419F44114C1
:100C70005104E1F08091A0039091A1030196803688
:100C800091052CF49093A1038093A00304C01092CB
:100C9000A1031092A0036091A0037091A10321E031
:100CA00030E0A8018EEA93E00E94DB1262E083EE5E
:100CB00093E00E94170B61E883EE93E00E94170B0C
:100CC00060E083EE93E00E94170B6CE373E083EE29
:100CD00093E00E942E048091AD03823030F4F894AA
:100CE00082EA93E00E94430401C0F8946091A90352
:100CF0007091AA038091AB039091AC037894A50105
:100D000094010E94F31C632F772783EE93E02983DD
:100D10003A834B835C830E94170B2981622F83EEF9
:100D200093E00E94170B6F2D83EE93E00E94170B48
:100D30006C2D83EE93E00E94170B6E2D83EE93E0F3
:100D40000E94170B642D83EE93E00E94170B60E066
:100D500083EE93E00E94170B60E083EE93E00E9425
:100D6000170B68E273E083EE93E00E942E0460E0CC
:100D700083EE93E00E94170B60E083EE93E00E9405
:100D8000170B60E083EE93E00E94170B60E083EEA8
:100D900093E00E94170B60E083EE93E00E94170B34
:100DA00063E083EE93E00E94170B45CF0F900F9006
:100DB0000F900F90DF91CF911F910F91FF90EF90C7
:100DC000DF90CF90BF90AF909F908F907F905F907B
:100DD0004F9008951F920F920FB60F9211242F93E8
:100DE0003F938F939F93AF93BF938091D103909143
:100DF000D203A091D303B091D4033091D00323E068
:100E0000230F2D3720F40196A11DB11D05C026E842
:100E1000230F0296A11DB11D2093D0038093D1030F
:100E20009093D203A093D303B093D4038091D503BE
:100E30009091D603A091D703B091D8030196A11D3C
:100E4000B11D8093D5039093D603A093D703B0939D
:100E5000D803BF91AF919F918F913F912F910F90A8
:100E60000FBE0F901F9018953FB7F8948091D5034F
:100E70009091D603A091D703B091D80326B5A89B33
:100E800005C02F3F19F00196A11DB11D3FBFBA2F1C
:100E9000A92F982F8827820F911DA11DB11DBC017C
:100EA000CD0142E0660F771F881F991F4A95D1F741
:100EB0000895CF92DF92EF92FF92CF93DF936B0171
:100EC0007C010E943407EB01C114D104E104F10458
:100ED00079F00E9434076C1B7D0B683E7340A0F3D1
:100EE00081E0C81AD108E108F108C851DC4FECCF05
:100EF000DF91CF91FF90EF90DF90CF900895019711
:100F000039F0880F991F880F991F02970197F1F701
:100F10000895789484B5826084BD84B5816084BD71
:100F200085B5826085BD85B5816085BDEEE6F0E062
:100F3000808181608083E1E8F0E0108280818260BE
:100F40008083808181608083E0E8F0E0808181603F
:100F50008083E1E9F0E0808182608083808181602C
:100F60008083E0E9F0E0808181608083E1ECF0E063
:100F700080818460808380818260808380818160C1
:100F80008083E3ECF0E0808181608083E0ECF0E03E
:100F9000808182608083E2ECF0E0808181608083E8
:100FA000EAE7F0E0808184608083808182608083D2
:100FB000808181608083808180688083089585300E
:100FC00008F04CC0E82FF0E0EE0FFF1FE752FC4F97
:100FD000718360838230E1F018F4813069F004C0DD
:100FE000833019F1843071F1809169008C7F482B36
:100FF00040936900E89A089580916900440F551F55
:10100000440F551F837F482B40936900E99A089548
:101010008091690034E0440F551F3A95E1F78F7CC9
:10102000482B40936900EA9A08958091690026E070
:10103000440F551F2A95E1F78F73482B40936900A1
:10104000EB9A089580916A0094E0440F551F9A9599
:10105000E1F78F7C482B40936A00EE9A08951F9227
:101060000F920FB60F9211242F933F934F935F93DC
:101070006F937F938F939F93AF93BF93EF93FF9360
:101080008091D9039091DA03892B29F0E091D9035B
:10109000F091DA030995FF91EF91BF91AF919F9184
:1010A0008F917F916F915F914F913F912F910F9011
:1010B0000FBE0F901F9018951F920F920FB60F92B0
:1010C00011242F933F934F935F936F937F938F934D
:1010D0009F93AF93BF93EF93FF938091DB03909126
:1010E000DC03892B29F0E091DB03F091DC03099507
:1010F000FF91EF91BF91AF919F918F917F916F91F0
:101100005F914F913F912F910F900FBE0F901F90C5
:1011100018951F920F920FB60F9211242F933F93A1
:101120004F935F936F937F938F939F93AF93BF93EF
:10113000EF93FF938091DD039091DE03892B29F0DB
:10114000E091DD03F091DE030995FF91EF91BF91EE
:10115000AF919F918F917F916F915F914F913F914F
:101160002F910F900FBE0F901F9018951F920F9206
:101170000FB60F9211242F933F934F935F936F936A
:101180007F938F939F93AF93BF93EF93FF93809140
:10119000DF039091E003892B29F0E091DF03F091C8
:1011A000E0030995FF91EF91BF91AF919F918F91CE
:1011B0007F916F915F914F913F912F910F900FBE53
:1011C0000F901F9018951F920F920FB60F92112437
:1011D0002F933F934F935F936F937F938F939F933F
:1011E000AF93BF93EF93FF938091E1039091E2035C
:1011F000892B29F0E091E103F091E2030995FF9139
:10120000EF91BF91AF919F918F917F916F915F917E
:101210004F913F912F910F900FBE0F901F901895F7
:1012200090E0FC013197EE30F10590F5EA5AFF4F5E
:101230000C94121D809180008F7703C080918000F4
:101240008F7D80938000089584B58F7702C084B528
:101250008F7D84BD0895809190008F7707C0809125
:1012600090008F7D03C080919000877F80939000D5
:1012700008958091C0008F7703C08091C0008F7D5A
:101280008093C00008958091C200877F8093C20040
:101290000895CF93DF9390E0FC01EE50FF4F24912F
:1012A000FC01E05FFE4F8491882361F190E0880F9C
:1012B000991FFC01E65BFE4FC591D491FC01E45CF3
:1012C000FE4FA591B491611109C09FB7F894888130
:1012D000209582238883EC912E230BC0623061F429
:1012E0009FB7F8943881822F809583238883EC916F
:1012F0002E2B2C939FBF06C08FB7F894E8812E2B1E
:1013000028838FBFDF91CF9108951F93CF93DF93F1
:10131000282F30E0F901EC52FF4F8491F901EE5093
:10132000FF4FD491F901E05FFE4FC491CC23C9F087
:10133000162F81110E941009EC2FF0E0EE0FFF1F15
:10134000E45CFE4FA591B4918FB7F894111105C0DC
:101350009C91ED2FE095E92302C0EC91ED2BEC93ED
:101360008FBFDF91CF911F910895823108F0825194
:10137000E82FF0E0E853FF4FE49180917B00E3FB1E
:10138000222720F930E095E0220F331F9A95E1F7EC
:101390008F7D282B20937B00E7708091000120E453
:1013A000829FC0011124E82BE0937C0080917A0099
:1013B000806480937A0080917A0086FDFCCF8091D2
:1013C00078002091790090E0922B0895CF92DF92DF
:1013D000EF92FF920F931F93CF93DF936C01EB017A
:1013E0007B01E40EF51E00E010E0CE15DF0561F094
:1013F0006991D601ED91FC910190F081E02DC6013B
:101400000995080F191FF1CFC801DF91CF911F91E6
:101410000F91FF90EF90DF90CF9008950C942E04E1
:10142000DC01ED91FC910190F081E02D09940F9386
:101430001F93CF93DF93EC016DE00E94100A8C01A3
:101440006AE0CE010E94100A800F911FDF91CF91B8
:101450001F910F9108950F931F93CF93DF93EC018A
:101460000E942E048C01CE010E94170A800F911F4A
:10147000DF91CF911F910F9108950F931F93CF93F9
:10148000DF93EC010E94100A8C01CE010E94170A22
:10149000800F911FDF91CF911F910F9108958F922F
:1014A0009F92AF92BF92CF92DF92EF92FF920F93F3
:1014B0001F93CF93DF93CDB7DEB7A1970FB6F89404
:1014C000DEBF0FBECDBF6C01142FE52FCB01022F65
:1014D00019A2223008F40AE07E0121E2E20EF11C9A
:1014E000802E912CA12CB12C612F7E2FA50194016F
:1014F0000E94D11C029F1019112481E0E81AF10802
:101500001A3014F4105D01C0195CF7011083122F1A
:10151000E32FCA01232B242B252B31F7B701C6015A
:101520000E942E04A1960FB6F894DEBF0FBECDBF69
:10153000DF91CF911F910F91FF90EF90DF90CF90AF
:10154000BF90AF909F908F900895CF92DF92EF92CF
:10155000FF920F931F93CF93DF93EC016A017B01FE
:101560002115310579F4E881F9810190F081E02DB0
:10157000642FDF91CF911F910F91FF90EF90DF903B
:10158000CF9009942A303105E9F477FF1AC06DE253
:101590000E94100A8C0144275527BA014C195D0995
:1015A0006E097F092AE0CE010E944F0A800F911F29
:1015B000DF91CF911F910F91FF90EF90DF90CF902F
:1015C00008952AE0B701A601CE01DF91CF911F91C6
:1015D0000F91FF90EF90DF90CF900C944F0A211560
:1015E000310541F4DC01ED91FC910190F081E02D99
:1015F000642F09940C944F0A9A01AB0160E070E0EB
:101600000C94EF0A089508950E9489070E94030B25
:1016100089EF93E00E94AE180E949104C0E0D0E0F0
:101620000E9451052097E1F30E940000F9CFCF936B
:10163000DF931F92CDB7DEB76983DC01ED91FC919A
:101640000280F381E02D41E050E0BE016F5F7F4FEB
:1016500009950F90DF91CF910895CF93DF93EC011F
:101660008C859D8597FF05C082E00E94E7159D87C8
:101670008C878C859D85DF91CF91089583E00C94B4
:101680004E18FC018485958597FD06C082E00E9476
:10169000911590E00196089582E00E94911590E0E6
:1016A0000895FC018485958597FD05C02FEF3FEFD8
:1016B00035872487089582E00C94E715CF93DF9354
:1016C000EC0180910801882331F083E00E94181614
:1016D0001816190634F081E090E09B838A8380E03D
:1016E00090E0DF91CF910895FC0190819E5F9083FF
:1016F00042E450E068E571E080E80C94B016FC012B
:1017000081819081913A59F4813209F04BC047E0D0
:1017100050E061E071E080E00E94B01645C0913277
:1017200009F040C0803239F467E070E081E091E078
:101730000E94F71639C0823209F034C0828180934A
:1017400008018091010190910201A0910301B091E3
:101750000401803B9440A105B10531F58091080159
:1017600080FD12C087E797E79093010880930008F7
:101770002BE088E190E00FB6F894A8958093600084
:101780000FBE2093600010C088E10FB6F8948093DC
:101790006000109260000FBEA89510920108109290
:1017A000000802C080E0089581E008952FEF3FEF28
:1017B000FC01358724870895E3EEF3E0138212825B
:1017C00088EE93E0A0E0B0E084839583A683B7839E
:1017D00085E493E0918380838FEF9FEF95878487E3
:1017E00008952F923F924F925F926F927F928F92C5
:1017F0009F92AF92BF92CF92DF92EF92FF920F93A0
:101800001F93CF93DF9300D01F92CDB7DEB74C016B
:101810007B836A836A01590117019801241B350BE8
:1018200037FF03C0319521953109C5014A815B819C
:10183000841B950B97FF03C091958195910951E009
:1018400059838217930714F019820BC09A2D8B2DA0
:101850005801092F182F9A818B81DB82CA82C92EE9
:10186000D82E8A819B81A816B9065CF49C2D8D2DFB
:101870006801092F182F9A818B81BB82AA82A92E19
:10188000B82E2501AA81BB814A1A5B0A38016C185F
:101890007D0877FE03C0719461947108720157FE50
:1018A00003C0BFEFEB1AFB0AF594E794C016D1060C
:1018B0001CF00FEF1FEF1FC001E010E01CC0D401AF
:1018C000ED91FC91B9810480F581E02D9101BB235C
:1018D000C1F04A815B81B601C4010995E618F70899
:1018E000F7FE04C0C00ED11EE40CF51CEA81FB819A
:1018F0003196FB83EA834A815B81A416B506FCF628
:1019000004C0A6016A817B81E7CF0F900F900F90F2
:10191000DF91CF911F910F91FF90EF90DF90CF90CB
:10192000BF90AF909F908F907F906F905F904F90FF
:101930003F902F9008956F927F928F929F92AF92D7
:10194000BF92CF92DF92EF92FF920F931F93CF93AC
:10195000DF93EC014B015A0169013801E881F981FB
:101960000284F385E02D87010995E881F981A501BD
:10197000460D571D415051090284F385E02D960113
:10198000B401CE010995E881F9810084F185E02D4B
:101990009301A501B401CE010995E881F981C80C34
:1019A000D91CB601615071090084F185E02D9301C5
:1019B000A501CE010995DF91CF911F910F91FF9065
:1019C000EF90DF90CF90BF90AF909F908F907F90DF
:1019D0006F900895EF92FF920F931F937801DC01AF
:1019E000ED91FC91240F351F8901015011090680EA
:1019F000F781E02D9B0109951F910F91FF90EF90CA
:101A00000895EF92FF920F931F93DC01ED91FC91EB
:101A1000260F371F215031090680F781E02D78010C
:101A20008A0109951F910F91FF90EF9008956F9291
:101A30007F928F929F92AF92BF92CF92DF92EF925E
:101A4000FF920F931F93CF93DF936C015A014801CC
:101A5000EB013B01620E731EC615D70574F4D60167
:101A6000ED91FC910084F185E02D87019401A501A1
:101A7000BE01C60109952196EFCFDF91CF911F914D
:101A80000F91FF90EF90DF90CF90BF90AF909F901D
:101A90008F907F906F900895EF92FF920F931F9316
:101AA000DC01ED91FC9111971A960D911C911B97F9
:101AB00018962D913C9119970684F785E02D7B01AE
:101AC00040E050E060E070E009951F910F91FF90B9
:101AD000EF9008950895FC011382128285E593E04A
:101AE000918380837583648357834683718760877E
:101AF00053874287158A158614861786168681E0D5
:101B0000848B2FEF3FEF338B228B318B208B868B97
:101B1000178A118E108E08952F923F924F925F92E6
:101B20006F927F928F929F92AF92BF92CF92DF92ED
:101B3000EF92FF920F931F93CF93DF93CDB7DEB752
:101B400069970FB6F894DEBF0FBECDBF4C011A01E6
:101B50001F830E83FD82EC82CA82DC0158964D9170
:101B60005C9159974115510509F0A8C018968D91BF
:101B70009C911997681779070CF05FC11A968D919F
:101B80009C911B97281639060CF057C1D12CCB011C
:101B9000EA81B6E0EB9F800D911D112418161906FD
:101BA0000CF04BC1C60133E0880F991F3A95E1F75D
:101BB000820D931D181619060CF03FC1D4015796DB
:101BC0008C91811103C0203B08F02F5FB5E02B9F63
:101BD000900111247E876D872B011B82F901E61B82
:101BE000F70BF987E8879101285F3F4F3B872A87EA
:101BF0003B81353059F0E885F9854D855E85E40FE8
:101C0000F51FE656FE4F5491598301C019823101E8
:101C10005101898180FF12C0D401ED91FC91BA81FC
:101C2000B13031F40480F581E02D2E813F8118C060
:101C30000684F785E02DEE80FF801DC0EC81FD81DC
:101C40002E813F81E217F307E1F0D401ED91FC9181
:101C5000BA81B13059F40480F581E02D2C813D81A9
:101C6000A5016D857E85C40109950BC00684F785A5
:101C7000E02DEC80FD8086019601A301B201C40134
:101C80000995E981E695E9836C0C7D1CFFEFAF1A9D
:101C9000BF0A2A853B85A216B30609F0BACF3B815D
:101CA0003F5F3B834C0C5D1C4D855E854F5F5F4FF6
:101CB0005E874D87363009F09BCFBFC0FA0134965E
:101CC000E4912E1BFA01329685919491A7E02A9F08
:101CD000800D911D1124FA0125913491388B2F87A5
:101CE000FC0165907490FC01329634913B833196EF
:101CF00044914C873296A491319684915A81523006
:101D000050F04A2E552447FC5094E82FFF27E7FD5A
:101D1000F095F987E887FA81CF2ED12C4C9C900161
:101D20004D9C300D5C9C300D1124A901460F571FAE
:101D30005B874A871982A12CEA2FFF27E7FDF095E0
:101D4000DB01AE0FBF1FBD83AC83BB816B0F711D69
:101D50009B012E0F3F1F3D8B2C8BA101480F511D66
:101D600087FD5A955F8B4E8B9C85A91608F065C040
:101D70008A2D90E048855985480F591F4C9D900148
:101D80004D9D300D5C9D300D1124D901A20DB31D68
:101D9000BE87AD87EC81FD81F98FE88F4A845B8433
:101DA000F9812C81F21BF98B4E895F89480F591FED
:101DB0005B8B4A8B8989F88D8F0F288D398D4C89E3
:101DC0005D892417350799F1877041F4EF85F8890B
:101DD000E60DF71DB490C30101963C01B7FE1EC08D
:101DE000D401ED91FC91BA81B13061F40480F581A8
:101DF000E02D2E813F814A895B89688D798DC401F0
:101E000009950CC00684F785E02DEE80FF808601E1
:101E100096014D855E85B201C4010995BB0C4C0C41
:101E20005D1CE88DF98D3196F98FE88FC3CF59810C
:101E30008B81580F5983A39497CF69960FB6F89466
:101E4000DEBF0FBECDBFDF91CF911F910F91FF90ED
:101E5000EF90DF90CF90BF90AF909F908F907F904A
:101E60006F905F904F903F902F900895AF92BF92E8
:101E7000CF92EF92FF920F931F93CF93DF93EC01DA
:101E8000262F888D998D009709F042C06A3069F439
:101E90002C898E859F8538E0239F800D911D11240C
:101EA0009F878E871D861C86A9C06D3009F4A6C049
:101EB0008E898823C1F03C898C859D8546E0349FBE
:101EC000800D911D112448855985841795075CF074
:101ED0001D861C868E859F8548E0349F800D911D50
:101EE00011249F878E87EA88FB88088919894E8587
:101EF0005F856C857D85CC88CE010E948C0D2C89F8
:101F00008C859D8536E0239F800D911D11243EC058
:101F10006A3079F41D861C862C89FC013696E49182
:101F20008E859F852E9F800D911D11249F878E8702
:101F300065C06D3009F462C0FC01349634916317BA
:101F400008F45CC03196E491E61708F457C0462FB8
:101F5000431B342FFC013296A590B49047E0349F88
:101F6000A00CB11C1124F501329634913196E49104
:101F7000332311F0E1110DC0F5013496E4912C8961
:101F80008C859D85E29F800D911D11249D878C87F6
:101F900035C0F501359644915E89552311F16C8960
:101FA000E32FF0E0E40FF11D47FDFA956E9FD0019D
:101FB0006F9FB00D11244C855D854A0F5B1FE8852E
:101FC000F9854E175F076CF01D861C86FC0136965E
:101FD000E4918E859F856E9F800D911D11249F87B2
:101FE0008E87EA88FB88088919894E855F856C850C
:101FF0007D85CC88CE010E948C0DBECF81E090E023
:10200000DF91CF911F910F91FF90EF90CF90BF90F4
:10201000AF900895FC0175876487578746870895B8
:10202000611101C061E0FC01648B0895FC01738BB8
:10203000628B718B608B0895FC0185890895FC018A
:10204000808591850895FC018285938508950F937D
:102050001F93CF93DF93DC01FB0155968C9155972D
:10206000823089F0833021F1813009F0E6C0149686
:102070008D919C911597BC01641B750BAB01415070
:102080005109BF011DC014966D917C911597CB012C
:102090008E1B9F0BFC0116968D919C911797BC018E
:1020A000641B750BAB0141505109E21BF30BC5C01A
:1020B00016966D917C9117976E1B7F0B621B730BAD
:1020C00057FD1AC114968D919C9115974817590781
:1020D0000CF012C177FF04C0260F371F60E070E0DC
:1020E00016968D919C911797FB01E20FF31F8E17A7
:1020F0009F071CF49C01261B370B121613060CF0CD
:10210000FBC0A22F862F86958695869590E8899F9D
:10211000400D511D1124FA01E75EFE4F6770A9F1D1
:1021200098E0961B492F50E0EA01CF5EDE4F888190
:10213000291790F4421B51092FEF30E002C035956A
:1021400027954A95E2F782230130110541F068F0A6
:102150000230110589F0D0C00130110519F4208139
:10216000822B0CC00130110520F480952081822340
:1021700005C00230110531F4208182278083A91720
:1021800008F4BAC0A91BE058FF4FA83048F102304C
:10219000110559F4EF018A2F988190959883C058C2
:1021A000DF4F88508830C0F732C081E00130110520
:1021B00009F080E08195EF019A2F8883C058DF4FA6
:1021C00098509830D0F788EF8A0F86958695869537
:1021D00060E8869FE00DF11D1124E058FF4FA770C5
:1021E000AA2309F489C0B0E0A75FBE4F8C910130EB
:1021F000110529F038F002301105E1F07DC0908121
:10220000892B03C0809590818923808375C088EFD6
:102210008A0F86958695869570E8879FE00DF11D5B
:102220001124E058FF4FA77009F466C0B0E0A75F23
:10223000BE4F8C9190818927E8CF57FD5DC01696DF
:102240008D919C911797481759070CF055C0F7FFCF
:1022500004C02E0F3F1FE0E0F0E014968D919C919A
:102260001597BF01620F731F861797071CF49C0117
:102270002E1B3F0B121613060CF03EC0CA0157FD71
:10228000079663E0959587956A95E1F79695982F5F
:10229000882797958795E80FF91FE75EFE4F4770EF
:1022A000552781E090E001C0880F4A95EAF7482F52
:1022B0000130110539F078F002301105E9F42E0FE4
:1022C0003F1F13C02E0F3F1FE217F307A9F08081B5
:1022D000842B8193F9CF80952E0F3F1FE217F307D0
:1022E00059F0908198239193F9CFE217F30721F0E9
:1022F000808184278193F9CFDF91CF911F910F9136
:1023000008950F931F93CF93DF93DC0155968C9123
:102310005597823071F0833009F1813009F08CC01B
:102320001496ED91FC911597E41BF50BE21BF30B52
:1023300020C01496ED91FC911597CF01861B970B49
:10234000BC01615071091696ED91FC911797CF0170
:10235000841B950BAC01421B530B6EC01696ED917E
:10236000FC911797CF01861B970BBC016150710937
:10237000FA0177FD1BC116968D919C9117976817EE
:1023800079070CF013C1F7FF04C02E0F3F1FE0E0E8
:10239000F0E014968D919C911597AF01420F531F59
:1023A000841795071CF49C012E1B3F0B1216130675
:1023B0000CF0FCC0CB0177FD079643E0959587951F
:1023C0004A95E1F79695982F882797958795E80F76
:1023D000F91FE75EFE4F6770772781E090E001C04C
:1023E000880F6A95EAF7482F0130110541F088F00F
:1023F0000230110509F0DAC02E0F3F1F15C02E0F55
:102400003F1FE217F30709F4D1C08081842B819329
:10241000F8CF80952E0F3F1FE217F30709F4C6C0CF
:10242000908198239193F8CFE217F30709F4BEC087
:10243000808184278193F8CF77FDB8C014968D9161
:102440009C911597681779070CF0B0C057FF04C02E
:10245000240F351F40E050E016968D919C91179700
:10246000FA01E20FF31F8E179F071CF49C01241B37
:10247000350B121613060CF099C0A22F842F8695E7
:102480008695869590E8899F600D711D1124FB014A
:10249000E75EFE4F4770A9F198E0941B492F50E08A
:1024A000EA01CF5EDE4F8881291790F4421B510963
:1024B0002FEF30E002C0359527954A95E2F7822349
:1024C0000130110541F068F00230110589F06EC04D
:1024D0000130110519F42081822B0CC00130110547
:1024E00020F480952081822305C00230110531F44B
:1024F000208182278083A91708F458C0A91BE058BF
:10250000FF4FA83048F10230110559F4EF018A2F2E
:10251000988190959883C058DF4F88508830C0F7D5
:1025200030C081E00130110509F080E08195EF01B4
:102530009A2F8883C058DF4F98509830D0F788EF93
:102540008A0F86958695869590E8899FE00DF11D06
:102550001124E058FF4FA770AA2341F1B0E0A75F14
:10256000BE4F8C910130110529F038F00230110571
:10257000D1F01CC09081892B18C08095908189234F
:1025800014C088EF8A0F86958695869590E8899F76
:10259000E00DF11D1124E058FF4FA77039F0B0E0B5
:1025A000A75FBE4F8C91908189278083DF91CF9167
:1025B0001F910F910895CF92DF92EF92FF920F93A8
:1025C0001F93CF93DF937C018B01EA01690177FDB3
:1025D000A0C00E941F10081719070CF09AC0D7FD61
:1025E00098C0C7010E942310C817D9070CF091C0EA
:1025F000C7010E941C10823009F07FC0F70164817E
:102600007581CB01801B910B8C0101501109468112
:102610005781FA01EC1BFD0BEF0121970BC08130B4
:1026200049F4F701848195818C1B9D0BE8018C0195
:1026300001501109F1E0CF16D10431F010F182E020
:10264000C816D104E1F165C0FE01D7FD379643E01D
:10265000F595E7954A95E1F7F695FE2FEE27F79564
:10266000E7950E0F1F1FF801E75EFE4FC770DD27CD
:1026700081E090E001C0880FCA95EAF79081892B2C
:102680003AC0FE01D7FD379623E0F595E7952A95E8
:10269000E1F7F695FE2FEE27F795E7950E0F1F1F32
:1026A000F801E75EFE4FC770DD2781E090E001C0D2
:1026B000880FCA95EAF78095908189231CC0FE0196
:1026C000D7FD379683E0F595E7958A95E1F7F6957E
:1026D000FE2FEE27F795E7950E0F1F1FF801E75E17
:1026E000FE4FC770DD2781E090E001C0880FCA95DA
:1026F000EAF79081892780830CC0833009F08FCF5F
:10270000F70186819781801B910B8E01EC01219747
:1027100091CFDF91CF911F910F91FF90EF90DF90BC
:10272000CF9008951F93CF93DF93EC01162F40E2D3
:1027300050E060E870E00E946B0D8DE693E09983B5
:1027400088838FEF8C8F88A38E8F8D8F1F8FDF9163
:10275000CF911F91089580E092E0E9E1F1E0DF017F
:102760009C011D9221503040E1F70895EF92FF92B5
:102770000F931F93CF93DF93FC0121A1222331F00C
:102780006EBD0DB407FEFDCF8EB51CC0162FEC013B
:1027900088E0E82EF12C00E860E08D8D0E9485092C
:1027A000802F812311F061E001C060E08C8D0E94D8
:1027B000850961E08D8D0E9485090695F1E0EF1A8B
:1027C000F10851F7DF91CF911F910F91FF90EF909A
:1027D00008951F93CF93DF93EC01162F8C8D8F3FBD
:1027E000B9F061E088A10E94850960E08E8D0E94A9
:1027F000850960E088A10E948509612FCE010E94B1
:10280000B61361E088A1DF91CF911F910C948509E7
:102810008A8D682F772767FD709582E094E00E948B
:10282000A01960E082E094E00E944D19612F82E0DF
:1028300094E00E944D1982E094E0DF91CF911F91C6
:102840000C94B5190F931F93CF93DF93EC01162FC0
:10285000022F6B8F4A8F8C8D8F3FE1F061E08E8D60
:102860000E94490961E088A10E94490989A181115A
:1028700008C061E08C8D0E94490961E08D8D0E9445
:10288000490989A1882351F00E94CC1884E00E9454
:10289000E21804C082E094E00E948C190023F1F059
:1028A0008F8D87FD1BC061E00E94490961E08F8D1B
:1028B0000E94850961E070E080E090E00E94590785
:1028C00060E08F8D0E9485096AE070E080E090E012
:1028D0000E94590761E08F8D0E9485096EEACE0142
:1028E0000E94E91365EDCE010E94E91360E8CE0174
:1028F0000E94E91368EACE010E94E9136FE1CE015C
:102900000E94E91363EDCE010E94E91360E0CE015D
:102910000E94E91360E4CE010E94E9136DE8CE0144
:102920000E94E913113011F460E101C064E1CE01AD
:102930000E94E91360E2CE010E94E91360E0CE013B
:102940000E94E91361EACE010E94E91368ECCE010E
:102950000E94E9136AEDCE010E94E91362E0CE0104
:102960000E94E91361E8CE010E94E9136FE8CE01ED
:102970000E94E91369EDCE010E94E913113011F4B0
:1029800062E201C061EFCE010E94E9136BEDCE015E
:102990000E94E91360E4CE010E94E91364EACE01CB
:1029A0000E94E91366EACE010E94E9136FEACE01A4
:1029B000DF91CF911F910F910C94E913662311F0D1
:1029C00067EA01C066EA0C94E9131F93CF93DF9383
:1029D000EC01611105C08B8D813021F01FEC03C02B
:1029E00010E001C01FE961E8CE010E94E913612FE8
:1029F000CE01DF91CF911F910C94E913DF92EF92FA
:102A0000FF920F931F93CF93DF93EC0161E20E943B
:102A1000E91360E0CE010E94E9136FE7CE010E9446
:102A2000E91362E2CE010E94E91360E0CE010E9448
:102A3000E91363E0CE010E94E9138C8D8F3F19F1F9
:102A400061E088A10E94850961E08E8D0E94850960
:102A500060E088A10E94850909E111E0F801619117
:102A60008F01CE010E94B613F3E009311F07B1F7C1
:102A700061E088A1DF91CF911F910F91FF90EF90BE
:102A8000DF900C948509D090B8008CE08093B8005A
:102A900009E111E06A8D772767FD709582E094E087
:102AA0000E94A01960E482E094E00E944D19E12C9C
:102AB000F12CF801EE0DFF1D608182E094E00E9490
:102AC0004D198FEFE81AF80AE0E1EE16F10489F7E4
:102AD00082E094E00E94B519005F1F4FF3E00931D6
:102AE0001F07C1F6D092B800DF91CF911F910F91CF
:102AF000FF90EF90DF900895615030F02091F10049
:102B0000FC0120830196F8CF289884E68093000486
:102B100008952FB7FC012083F89467706093E90053
:102B20000895CF93DF931F92CDB7DEB7682FCE0104
:102B300001960E9489158091F20099819FBF0F90A4
:102B4000DF91CF910895EF92FF920F931F93CF9350
:102B5000DF931F92CDB7DEB79091FF03992311F059
:102B600057FF03C08FEF9FEF2AC08A017B01682FB8
:102B7000CE0101960E9489158091F20090E0A80193
:102B8000801791070CF4AC01842FF70194E6815073
:102B900038F02898909300042091F1002193F7CF0A
:102BA0004115510521F08091F200882321F089819F
:102BB0008FBFCA0104C08BE68093E800F8CF0F9066
:102BC000DF91CF911F910F91FF90EF900895CF93D8
:102BD000DF931F92CDB7DEB741E050E0BE016F5FDB
:102BE0007F4F0E94A315019719F4898190E002C0DC
:102BF0008FEF9FEF0F90DF91CF910895CF93DF93E9
:102C00001F92CDB7DEB7682FCE0101960E948915BD
:102C10009091E800892F807295FF04C09091F20096
:102C200080E4891B99819FBF0F90DF91CF91089518
:102C30006F927F928F929F92AF92BF92CF92DF92CC
:102C4000EF92FF920F931F93CF93DF931F92CDB715
:102C5000DEB7A82E6B01B42E052F8091FF038823C9
:102C600069F0E42EF52E8AEF982E8A2D8072782E48
:102C70009AE3892E8A2D8074682E12C08FEF9FEF01
:102C800054C08A2D0E94FE15182F81110DC09A94F0
:102C90009920A1F361E070E080E090E00E94590784
:102CA000E114F10471F737C090E0E816F9060CF46E
:102CB0001E2D6A2DCE0101960E9489158091E80093
:102CC00085FF26C0812F90E0E81AF90A772029F0C5
:102CD0001150A8F01092F100FBCFF601A7FE07C03B
:102CE000115058F024912093F1003196F9CF1150F2
:102CF00020F021912093F100FACFC80ED91E8091C7
:102D0000E80085FF0FC0E114F10411F461100AC05E
:102D100089818FBFC5CF5D9884E6809301048B2D98
:102D2000902F03C08092E800F3CF0F90DF91CF91F6
:102D30001F910F91FF90EF90DF90CF90BF90AF90D9
:102D40009F908F907F906F9008951092E90010925D
:102D5000FE031092FD039093FC038093FB03089500
:102D60000F931F93CF93DF93DB01A40FB51FFB01DC
:102D70006EEFEA17FB0791F187FF02C0249101C0B3
:102D800020810091FD031091FE03C091FB03D091BF
:102D9000FC030C171D07B4F49091E8009570E1F363
:102DA0009091E80092FD1CC02093F1002091FD035A
:102DB0003091FE032F5F3F4F2F733327232B11F4E6
:102DC0006093E8002091FD033091FE032F5F3F4F99
:102DD0003093FE032093FD033196CBCFCA0102C08E
:102DE0008FEF9FEFDF91CF911F910F9108951F9368
:102DF000CF93DF931F92CDB7DEB7162F2091E80057
:102E000022FFFCCF612F79830E947C158BEF80938A
:102E1000E800812F7981972F0F90DF91CF911F913B
:102E20000895CF93DF931F92CDB7DEB71982CE01FD
:102E300001960E94740BCE0101960E94DA198981D5
:102E400090E00F90DF91CF9108951F920F920FB6EF
:102E50000F921124CF92DF92EF92FF921F932F9344
:102E60003F934F935F936F937F938F939F93AF9312
:102E7000BF93EF93FF93CF93DF93CDB7DEB7619707
:102E8000DEBFCDBF1092E9008091E80083FFE8C06B
:102E900068E0CE010A960E947C1582EF8093E800DC
:102EA0009A8597FF05C08091E80080FFFCCF03C0A2
:102EB0008EEF8093E800892F807609F0B6C08B856D
:102EC000811105C01092F1001092F100C2C0282FAC
:102ED0002D7F213009F4BDC0853049F48091E80090
:102EE00080FFFCCF8C8580688093E300B2C0863081
:102EF00009F06FC01D85E888F988123069F580E017
:102F000090E00E94A5160E94111799E09E012F5F84
:102F10003F4F6901F901292F11922A95E9F7998309
:102F20001A8391E09E8390E898879AEF9987209181
:102F3000FD033091FE03275F3F4F3C832B838D833E
:102F4000C7010E94A51649E050E0B60180E00E944A
:102F5000B0160E9411177DC0C7010E94A51612323B
:102F600041F482E290E00E94E519892B09F071C0DA
:102F700074C0113069F488899989089711F4109305
:102F8000FA038091FA03811111C061EB76E016C05B
:102F9000133009F062C08C85882359F0823061F0CB
:102FA000813009F05AC063EC76E008C06FE976E042
:102FB00005C06DEF76E002C06BED76E0611571053E
:102FC00009F44BC0FB01449150E080E80E94B01628
:102FD00040C0873009F441C0883021F481E08093FB
:102FE000F10037C08930A9F59370B9F580E090E021
:102FF00031E026E341E0480F4093E9003093EB00D5
:103000000196FC01E656F94FE491E093EC00209321
:10301000ED008430910571F78EE78093EA001092FD
:10302000EA008C858093FF0314C0888999890E94E7
:10303000A5168E85811105C0CE010A960E947F0BD0
:1030400006C0823051F4CE010A960E940D1A8823E0
:1030500021F08EEF8093E80003C081E28093EB00C3
:1030600061960FB6F894DEBF0FBECDBFDF91CF9152
:10307000FF91EF91BF91AF919F918F917F916F9150
:103080005F914F913F912F911F91FF90EF90DF90B3
:10309000CF900F900FBE0F901F9018958093E9006E
:1030A0008091F200882319F08AE38093E800089564
:1030B0001F920F920FB60F9211242F933F934F93AD
:1030C0005F936F937F938F939F93AF93BF93EF9390
:1030D000FF938091E1001092E10083FF0FC01092F6
:1030E000E90091E09093EB001092EC0092E3909352
:1030F000ED001092FF0398E09093F00082FF1DC056
:1031000083E00E944E1880910104882339F0809159
:103110000104815080930104882369F080910004A8
:10312000882359F08091000481508093000481111C
:1031300004C0289A02C05D9AF1CFFF91EF91BF9130
:10314000AF919F918F917F916F915F914F913F913F
:103150002F910F900FBE0F901F9018951092FF03A4
:1031600081E08093D70080EA8093D80082E189BD16
:1031700009B400FEFDCF61E070E080E090E00E94C5
:10318000590780E98093D8008CE08093E200109288
:10319000E000559A209A089561E081E10E94850936
:1031A00061E081E10E9449098CB580618CBD8CB5DC
:1031B00080648CBD61E08FE00E94490961E080E19C
:1031C0000C9449099CB5282F23709C7F922B9CBDA1
:1031D0002DB582FB992790F9822F8E7F892B8DBD8B
:1031E00008958091320490E020913304821B91096C
:1031F00008959091330480913204981750F4E92F88
:10320000F0E0EC5CFB4F208130E09F5F9093330453
:1032100002C02FEF3FEFC9010895E0913304809180
:103220003204E81730F4F0E0EC5CFB4F808190E072
:1032300008958FEF9FEF08950895CF92DF92EF9258
:10324000FF920F931F93CF93DF937C01262F972F2D
:103250008A0180910E04882391F0C62FD72F6E012A
:10326000C40ED51ECC15DD0571F06991D701ED9125
:10327000FC910190F081E02DC7010995F3CF642FF7
:10328000822F0E94641BC801DF91CF911F910F9183
:10329000FF90EF90DF90CF900895CF93DF931F9230
:1032A000CDB7DEB7698320910E042223D1F020919F
:1032B0000F04203240F021E030E0FC013383228310
:1032C00080E090E015C080911004E82FF0E0EF5E00
:1032D000FB4F998190838F5F8093100480930F043C
:1032E00005C061E0CE0101960E94641B81E090E080
:1032F0000F90DF91CF910895FC011382128288EE26
:1033000093E0A0E0B0E084839583A683B78385E84B
:1033100093E09183808308951092330410923204D5
:103320001092100410920F040C94F41A81E0809310
:103330000E04609331041092100410920F0408954B
:103340000C9496190F93062F21E040910F0461E130
:1033500074E0809131040E94121B109210041092AC
:103360000F0410920E040F91089561E00C94A219BD
:1033700082E094E00C947C19EF92FF921F93CF931C
:10338000DF93EC01162FE881F9810480F581E02DAF
:1033900009957C01E881F9810680F781E02D612F94
:1033A000CE010995C7019927DF91CF911F91FF9019
:1033B000EF900895FC0190819F5F908349E150E078
:1033C00061E877E080E80C94B01645E650E06AE9E1
:1033D00077E080E80C94B016EF92FF920F931F9362
:1033E000CF93DF931F92CDB7DEB789838B017A012C
:1033F00041E050E0BE016F5F7F4F84E00E941816ED
:10340000A701B80184E40E9418160F90DF91CF91B4
:103410001F910F91FF90EF900895FC0191818081A1
:10342000813A31F481E0913091F0933089F411C008
:10343000813271F49B3021F4828180931A0305C09C
:103440009A3031F482818093190381E008950895C0
:1034500080E0089548E050E082E00C94EC19DC0133
:10346000683810F068582DC0E62FF0E067FF11C0F3
:10347000E058F10981E090E001C0880FEA95EAF791
:1034800014969C911497892B14968C93149760E052
:1034900018C0EF5FF84F6491611109C081E090E0BE
:1034A00013969C938E93129780E090E0089567FFA7
:1034B00008C014968C911497826014968C9314977C
:1034C0006F7716968C911697861751F117968C91F7
:1034D0001797861729F118968C911897861701F17E
:1034E00019968C9119978617D9F01A968C911A977C
:1034F0008617B1F01B968C911B97861789F0FD01FA
:10350000369680E090E02191211105C0FD01E80F81
:10351000F91F668305C0019686309105A1F7BECFDD
:10352000CD01BD016C5F7F4F0E942A1A81E090E0BF
:103530000895DC01683810F0685825C0E62FF0E0E7
:1035400067FF12C0E058F10981E090E001C0880FE8
:10355000EA95EAF7809514969C911497892314961E
:103560008C93149760E00FC0EF5FF84F649166236F
:1035700001F167FF08C014968C9114978D7F149603
:103580008C9314976F77FD01369686E0662321F0C1
:103590009081961301C01082815031968111F6CF2F
:1035A000CD01BD016C5F7F4F0E942A1A81E090E03F
:1035B000089580E090E00895FC011682178210863D
:1035C0001186128613861482BC016C5F7F4F0C94A7
:1035D0002A1A10926004E4E5F4E01382128285E96D
:1035E00093E09183808308951092CE0481E08093CC
:1035F000CC041092CB0461E082E00E94850961E076
:1036000083E00E948509E9EBF0E080818E7F808372
:1036100080818D7F808388E48093B80085E48093E7
:10362000BC0008950F93413208F046C09091CE043B
:103630009111FCCF32E03093CE040093CC043FEFE5
:10364000309361041092A6044093A504FB0167EA3D
:1036500074E0DB013A2F361B341718F431913D9397
:10366000F9CF1092CD043091CD04880F832B809335
:10367000CD048091CB04813041F41092CB04809131
:10368000CD048093BB0085EC01C085EE8093BC0027
:10369000222321F08091CE048230D1F38091610405
:1036A0008F3F79F080916104803241F08091610414
:1036B000803331F094E005C091E003C092E001C096
:1036C00093E0892F0F910895613298F42091CE04F0
:1036D000243089F460938304FC0125E834E0D901A7
:1036E0008A2F821B861718F481918D93F9CF80E081
:1036F000089581E0089582E0089585ED8093BC00EF
:103700008091BC0084FDFCCF1092CE04089585EC1E
:103710008093BC001092CE0408951F920F920FB6B2
:103720000F9211242F933F934F935F936F937F9347
:103730008F939F93AF93BF93EF93FF938091B900C3
:10374000887F803609F49CC068F5883209F45BC034
:1037500090F4803109F454C038F4882309F4F5C09A
:10376000883009F44DC0F5C0883109F44CC080326E
:1037700009F45DC0EEC0803409F468C048F48033B9
:1037800009F455C0883309F0E4C080936104A8C0EF
:10379000803509F44FC0883509F45DC0883409F0DC
:1037A000D8C0D5C0883909F4C6C0A8F4883709F450
:1037B00067C038F4883609F463C0803709F460C004
:1037C000C8C0883809F4B7C0803909F45FC08038B0
:1037D00009F0BFC05BC0803B09F485C038F4803A73
:1037E00009F466C0883A09F47EC0B3C0803C09F48D
:1037F000A6C0883C09F4A3C0883B09F489C0A9C0CD
:103800008091CD0410C09091A6048091A5049817D2
:1038100070F5E091A60481E08E0F8093A604F0E09D
:10382000E955FB4F80818093BB0085EC85C0809378
:1038300061048DC0E091A60481E08E0F8093A60400
:103840008091BB00F0E0E955FB4F80839091A60486
:103850008091A5046DC0E091A60481E08E0F809355
:10386000A6048091BB00F0E0E955FB4F8083809176
:10387000CC0481116CC081E08093CB0484EA60C0E9
:1038800083E08093CE0410926204CFCF80916204D3
:10389000803208F050C0E091620481E08E0F809386
:1038A00062048091BB00F0E0ED59FB4F8083BDCFF7
:1038B00080916204803230F4E0916204F0E0ED59CE
:1038C000FB4F10820E947D1B6091620470E0E091CA
:1038D000C704F091C80483E694E00995109262044D
:1038E0000E94871B36C084E08093CE04109284042B
:1038F00010928304E091C904F091CA040995809163
:103900008304811105C081E08093830410928504B3
:10391000E091840481E08E0F80938404F0E0EB5703
:10392000FB4F80818093BB0090918404809183043D
:10393000981708F47ACF85E88093BC000AC085EC1C
:103940008093BC001092CE0404C0109261040E94C7
:103950007D1BFF91EF91BF91AF919F918F917F91CF
:103960006F915F914F913F912F910F900FBE0F90EC
:103970001F901895F8940C94181DAA1BBB1B51E1BD
:1039800007C0AA1FBB1FA617B70710F0A61BB70BCF
:10399000881F991F5A95A9F780959095BC01CD0174
:1039A0000895A1E21A2EAA1BBB1BFD010DC0AA1F80
:1039B000BB1FEE1FFF1FA217B307E407F50720F098
:1039C000A21BB30BE40BF50B661F771F881F991F13
:1039D0001A9469F760957095809590959B01AC015C
:1039E000BD01CF010895052E97FB1EF400940E949F
:1039F0000A1D57FD07D00E94D11C07FC03D04EF4CE
:103A00000C940A1D50954095309521953F4F4F4F8E
:103A10005F4F089590958095709561957F4F8F4F7A
:103A20009F4F0895EE0FFF1F0590F491E02D09942C
:043A3000F894FFCF38
:103A34000100E1000000000000000103070F1F3F28
:103A44007F0080C0E0F0F8FCFE00000000000000F1
:103A54000000000000000000000000000000000062
:103A64000000000000000000000000000000000052
:103A74000000000000000000000000000000000042
:103A840000000000000000008080800000000000B2
:103A9400000000000000000000008080C0C00000A2
:103AA4000000000000000000000000000000000012
:103AB4000000000000000000000000000000000002
:103AC40000000000000000000000000000000000F2
:103AD4000000000000000000000000000080C0E0C2
:103AE400F0F8FCF8E0000000000000000000000016
:103AF4000000000000008080808080008080000042
:103B04000000808080808000FFFFFF0000000080B4
:103B140080808000008080000080FFFF8080008023
:103B24008000808080800080800000000000808011
:103B340000008C8E84000080F8F8F88000000000FB
:103B4400000000000000000000F0F0F0F0F0F0F0E1
:103B5400F0F0F0F0F0E0E0C08000E0FCFEFFFFFFDA
:103B64007FFFFFFFFFFF00000000000000000000D7
:103B740000000000FEFFC70101010183FFFF0000F8
:103B84007CFEC70101010183FFFFFF0038FEC783EC
:103B940001010183C7FFFF000001FFFF010100FFD6
:103BA400FF0701010100007FFF80000000FFFF7F8D
:103BB4000000FFFFFF000001FFFFFF010000000005
:103BC400000000000000000000030F3F7F7FFFFFA4
:103BD400FFFFFFFFFFE7C7C78F8F9FBFFFFFC3C074
:103BE400F0FFFFFFFFFFFCFCFCFCFCFCFCFCF8F816
:103BF400F0F0E0C00001030303030301030300002A
:103C04000000010303030301010301000000010399
:103C14000303030101030300000003030000000386
:103C2400030000000000000001030303030301007C
:103C34000000010301000000030301000000000074
:103C440000000000000000000001016F69214645EA
:103C540054206D65746572002020202020202020CF
:103C64002020202020202020202020202020202050
:103C74000000000000170B5E0B410B510B2D0B3E97
:103C84000B00000000360FE609020BF10BEA0C01F1
:103C94000D9B0C170D4C0D6A0D00000000360FE64D
:103CA40009DB12F10B811127109B0C170D4C0DDE53
:103CB40014000000004D191D19F118F9180D191CF4
:103CC4001900000000BC19E6092F1A991ADC1A0021
:00000001FF
